{
  "_format": "hh-sol-artifact-1",
  "contractName": "TradingCardGame",
  "sourceName": "contracts/TradingCardGame.sol",
  "abi": [
    {
      "inputs": [],
      "stateMutability": "nonpayable",
      "type": "constructor"
    },
    {
      "inputs": [
        {
          "internalType": "address",
          "name": "sender",
          "type": "address"
        },
        {
          "internalType": "uint256",
          "name": "balance",
          "type": "uint256"
        },
        {
          "internalType": "uint256",
          "name": "needed",
          "type": "uint256"
        },
        {
          "internalType": "uint256",
          "name": "tokenId",
          "type": "uint256"
        }
      ],
      "name": "ERC1155InsufficientBalance",
      "type": "error"
    },
    {
      "inputs": [
        {
          "internalType": "address",
          "name": "approver",
          "type": "address"
        }
      ],
      "name": "ERC1155InvalidApprover",
      "type": "error"
    },
    {
      "inputs": [
        {
          "internalType": "uint256",
          "name": "idsLength",
          "type": "uint256"
        },
        {
          "internalType": "uint256",
          "name": "valuesLength",
          "type": "uint256"
        }
      ],
      "name": "ERC1155InvalidArrayLength",
      "type": "error"
    },
    {
      "inputs": [
        {
          "internalType": "address",
          "name": "operator",
          "type": "address"
        }
      ],
      "name": "ERC1155InvalidOperator",
      "type": "error"
    },
    {
      "inputs": [
        {
          "internalType": "address",
          "name": "receiver",
          "type": "address"
        }
      ],
      "name": "ERC1155InvalidReceiver",
      "type": "error"
    },
    {
      "inputs": [
        {
          "internalType": "address",
          "name": "sender",
          "type": "address"
        }
      ],
      "name": "ERC1155InvalidSender",
      "type": "error"
    },
    {
      "inputs": [
        {
          "internalType": "address",
          "name": "operator",
          "type": "address"
        },
        {
          "internalType": "address",
          "name": "owner",
          "type": "address"
        }
      ],
      "name": "ERC1155MissingApprovalForAll",
      "type": "error"
    },
    {
      "inputs": [
        {
          "internalType": "address",
          "name": "owner",
          "type": "address"
        }
      ],
      "name": "OwnableInvalidOwner",
      "type": "error"
    },
    {
      "inputs": [
        {
          "internalType": "address",
          "name": "account",
          "type": "address"
        }
      ],
      "name": "OwnableUnauthorizedAccount",
      "type": "error"
    },
    {
      "anonymous": false,
      "inputs": [
        {
          "indexed": true,
          "internalType": "address",
          "name": "account",
          "type": "address"
        },
        {
          "indexed": true,
          "internalType": "address",
          "name": "operator",
          "type": "address"
        },
        {
          "indexed": false,
          "internalType": "bool",
          "name": "approved",
          "type": "bool"
        }
      ],
      "name": "ApprovalForAll",
      "type": "event"
    },
    {
      "anonymous": false,
      "inputs": [
        {
          "indexed": true,
          "internalType": "address",
          "name": "user",
          "type": "address"
        },
        {
          "indexed": false,
          "internalType": "uint256[]",
          "name": "cardIds",
          "type": "uint256[]"
        }
      ],
      "name": "BoosterOpened",
      "type": "event"
    },
    {
      "anonymous": false,
      "inputs": [
        {
          "indexed": true,
          "internalType": "address",
          "name": "previousOwner",
          "type": "address"
        },
        {
          "indexed": true,
          "internalType": "address",
          "name": "newOwner",
          "type": "address"
        }
      ],
      "name": "OwnershipTransferred",
      "type": "event"
    },
    {
      "anonymous": false,
      "inputs": [
        {
          "indexed": true,
          "internalType": "address",
          "name": "operator",
          "type": "address"
        },
        {
          "indexed": true,
          "internalType": "address",
          "name": "from",
          "type": "address"
        },
        {
          "indexed": true,
          "internalType": "address",
          "name": "to",
          "type": "address"
        },
        {
          "indexed": false,
          "internalType": "uint256[]",
          "name": "ids",
          "type": "uint256[]"
        },
        {
          "indexed": false,
          "internalType": "uint256[]",
          "name": "values",
          "type": "uint256[]"
        }
      ],
      "name": "TransferBatch",
      "type": "event"
    },
    {
      "anonymous": false,
      "inputs": [
        {
          "indexed": true,
          "internalType": "address",
          "name": "operator",
          "type": "address"
        },
        {
          "indexed": true,
          "internalType": "address",
          "name": "from",
          "type": "address"
        },
        {
          "indexed": true,
          "internalType": "address",
          "name": "to",
          "type": "address"
        },
        {
          "indexed": false,
          "internalType": "uint256",
          "name": "id",
          "type": "uint256"
        },
        {
          "indexed": false,
          "internalType": "uint256",
          "name": "value",
          "type": "uint256"
        }
      ],
      "name": "TransferSingle",
      "type": "event"
    },
    {
      "anonymous": false,
      "inputs": [
        {
          "indexed": false,
          "internalType": "string",
          "name": "value",
          "type": "string"
        },
        {
          "indexed": true,
          "internalType": "uint256",
          "name": "id",
          "type": "uint256"
        }
      ],
      "name": "URI",
      "type": "event"
    },
    {
      "inputs": [],
      "name": "BOOSTER_CARDS_NUMBER",
      "outputs": [
        {
          "internalType": "uint16",
          "name": "",
          "type": "uint16"
        }
      ],
      "stateMutability": "view",
      "type": "function"
    },
    {
      "inputs": [],
      "name": "BOOSTER_OPENING_DELAY",
      "outputs": [
        {
          "internalType": "uint32",
          "name": "",
          "type": "uint32"
        }
      ],
      "stateMutability": "view",
      "type": "function"
    },
    {
      "inputs": [],
      "name": "COLLECTION_CARDS_NUMBER",
      "outputs": [
        {
          "internalType": "uint16",
          "name": "",
          "type": "uint16"
        }
      ],
      "stateMutability": "view",
      "type": "function"
    },
    {
      "inputs": [
        {
          "internalType": "address",
          "name": "account",
          "type": "address"
        },
        {
          "internalType": "uint256",
          "name": "id",
          "type": "uint256"
        }
      ],
      "name": "balanceOf",
      "outputs": [
        {
          "internalType": "uint256",
          "name": "",
          "type": "uint256"
        }
      ],
      "stateMutability": "view",
      "type": "function"
    },
    {
      "inputs": [
        {
          "internalType": "address[]",
          "name": "accounts",
          "type": "address[]"
        },
        {
          "internalType": "uint256[]",
          "name": "ids",
          "type": "uint256[]"
        }
      ],
      "name": "balanceOfBatch",
      "outputs": [
        {
          "internalType": "uint256[]",
          "name": "",
          "type": "uint256[]"
        }
      ],
      "stateMutability": "view",
      "type": "function"
    },
    {
      "inputs": [
        {
          "internalType": "address",
          "name": "user",
          "type": "address"
        }
      ],
      "name": "getCardsByUser",
      "outputs": [
        {
          "internalType": "uint256[]",
          "name": "",
          "type": "uint256[]"
        },
        {
          "internalType": "uint256[]",
          "name": "",
          "type": "uint256[]"
        }
      ],
      "stateMutability": "view",
      "type": "function"
    },
    {
      "inputs": [
        {
          "internalType": "address",
          "name": "account",
          "type": "address"
        },
        {
          "internalType": "address",
          "name": "operator",
          "type": "address"
        }
      ],
      "name": "isApprovedForAll",
      "outputs": [
        {
          "internalType": "bool",
          "name": "",
          "type": "bool"
        }
      ],
      "stateMutability": "view",
      "type": "function"
    },
    {
      "inputs": [
        {
          "internalType": "address",
          "name": "",
          "type": "address"
        }
      ],
      "name": "lastBoosterTimestamp",
      "outputs": [
        {
          "internalType": "uint256",
          "name": "",
          "type": "uint256"
        }
      ],
      "stateMutability": "view",
      "type": "function"
    },
    {
      "inputs": [
        {
          "internalType": "address",
          "name": "to",
          "type": "address"
        },
        {
          "internalType": "uint256",
          "name": "id",
          "type": "uint256"
        },
        {
          "internalType": "uint256",
          "name": "amount",
          "type": "uint256"
        }
      ],
      "name": "mint",
      "outputs": [],
      "stateMutability": "nonpayable",
      "type": "function"
    },
    {
      "inputs": [],
      "name": "openBooster",
      "outputs": [],
      "stateMutability": "nonpayable",
      "type": "function"
    },
    {
      "inputs": [],
      "name": "owner",
      "outputs": [
        {
          "internalType": "address",
          "name": "",
          "type": "address"
        }
      ],
      "stateMutability": "view",
      "type": "function"
    },
    {
      "inputs": [],
      "name": "renounceOwnership",
      "outputs": [],
      "stateMutability": "nonpayable",
      "type": "function"
    },
    {
      "inputs": [
        {
          "internalType": "address",
          "name": "from",
          "type": "address"
        },
        {
          "internalType": "address",
          "name": "to",
          "type": "address"
        },
        {
          "internalType": "uint256[]",
          "name": "ids",
          "type": "uint256[]"
        },
        {
          "internalType": "uint256[]",
          "name": "values",
          "type": "uint256[]"
        },
        {
          "internalType": "bytes",
          "name": "data",
          "type": "bytes"
        }
      ],
      "name": "safeBatchTransferFrom",
      "outputs": [],
      "stateMutability": "nonpayable",
      "type": "function"
    },
    {
      "inputs": [
        {
          "internalType": "address",
          "name": "from",
          "type": "address"
        },
        {
          "internalType": "address",
          "name": "to",
          "type": "address"
        },
        {
          "internalType": "uint256",
          "name": "id",
          "type": "uint256"
        },
        {
          "internalType": "uint256",
          "name": "value",
          "type": "uint256"
        },
        {
          "internalType": "bytes",
          "name": "data",
          "type": "bytes"
        }
      ],
      "name": "safeTransferFrom",
      "outputs": [],
      "stateMutability": "nonpayable",
      "type": "function"
    },
    {
      "inputs": [
        {
          "internalType": "address",
          "name": "operator",
          "type": "address"
        },
        {
          "internalType": "bool",
          "name": "approved",
          "type": "bool"
        }
      ],
      "name": "setApprovalForAll",
      "outputs": [],
      "stateMutability": "nonpayable",
      "type": "function"
    },
    {
      "inputs": [
        {
          "internalType": "uint16",
          "name": "_number",
          "type": "uint16"
        }
      ],
      "name": "setBoosterCardsNumber",
      "outputs": [],
      "stateMutability": "nonpayable",
      "type": "function"
    },
    {
      "inputs": [
        {
          "internalType": "uint32",
          "name": "_delay",
          "type": "uint32"
        }
      ],
      "name": "setBoosterDelay",
      "outputs": [],
      "stateMutability": "nonpayable",
      "type": "function"
    },
    {
      "inputs": [
        {
          "internalType": "uint16",
          "name": "_number",
          "type": "uint16"
        }
      ],
      "name": "setCollectionCardsNumber",
      "outputs": [],
      "stateMutability": "nonpayable",
      "type": "function"
    },
    {
      "inputs": [
        {
          "internalType": "bytes4",
          "name": "interfaceId",
          "type": "bytes4"
        }
      ],
      "name": "supportsInterface",
      "outputs": [
        {
          "internalType": "bool",
          "name": "",
          "type": "bool"
        }
      ],
      "stateMutability": "view",
      "type": "function"
    },
    {
      "inputs": [
        {
          "internalType": "address",
          "name": "newOwner",
          "type": "address"
        }
      ],
      "name": "transferOwnership",
      "outputs": [],
      "stateMutability": "nonpayable",
      "type": "function"
    },
    {
      "inputs": [
        {
          "internalType": "uint256",
          "name": "",
          "type": "uint256"
        }
      ],
      "name": "uri",
      "outputs": [
        {
          "internalType": "string",
          "name": "",
          "type": "string"
        }
      ],
      "stateMutability": "view",
      "type": "function"
    },
    {
      "inputs": [
        {
          "internalType": "address",
          "name": "",
          "type": "address"
        },
        {
          "internalType": "uint256",
          "name": "",
          "type": "uint256"
        }
      ],
      "name": "userCardBalances",
      "outputs": [
        {
          "internalType": "uint256",
          "name": "",
          "type": "uint256"
        }
      ],
      "stateMutability": "view",
      "type": "function"
    }
  ],
  "bytecode": "0x608060405261a8c0600360146101000a81548163ffffffff021916908363ffffffff16021790555060cf600360186101000a81548161ffff021916908361ffff16021790555060056003601a6101000a81548161ffff021916908361ffff16021790555034801561006f57600080fd5b50336040518060a001604052806067815260200161357b606791396100998161012160201b60201c565b50600073ffffffffffffffffffffffffffffffffffffffff168173ffffffffffffffffffffffffffffffffffffffff160361010c5760006040517f1e4fbdf7000000000000000000000000000000000000000000000000000000008152600401610103919061023b565b60405180910390fd5b61011b8161013460201b60201c565b50610578565b806002908161013091906104a6565b5050565b6000600360009054906101000a900473ffffffffffffffffffffffffffffffffffffffff16905081600360006101000a81548173ffffffffffffffffffffffffffffffffffffffff021916908373ffffffffffffffffffffffffffffffffffffffff1602179055508173ffffffffffffffffffffffffffffffffffffffff168173ffffffffffffffffffffffffffffffffffffffff167f8be0079c531659141344cd1fd0a4f28419497f9722a3daafe3b4186f6b6457e060405160405180910390a35050565b600073ffffffffffffffffffffffffffffffffffffffff82169050919050565b6000610225826101fa565b9050919050565b6102358161021a565b82525050565b6000602082019050610250600083018461022c565b92915050565b600081519050919050565b7f4e487b7100000000000000000000000000000000000000000000000000000000600052604160045260246000fd5b7f4e487b7100000000000000000000000000000000000000000000000000000000600052602260045260246000fd5b600060028204905060018216806102d757607f821691505b6020821081036102ea576102e9610290565b5b50919050565b60008190508160005260206000209050919050565b60006020601f8301049050919050565b600082821b905092915050565b6000600883026103527fffffffffffffffffffffffffffffffffffffffffffffffffffffffffffffffff82610315565b61035c8683610315565b95508019841693508086168417925050509392505050565b6000819050919050565b6000819050919050565b60006103a361039e61039984610374565b61037e565b610374565b9050919050565b6000819050919050565b6103bd83610388565b6103d16103c9826103aa565b848454610322565b825550505050565b600090565b6103e66103d9565b6103f18184846103b4565b505050565b5b818110156104155761040a6000826103de565b6001810190506103f7565b5050565b601f82111561045a5761042b816102f0565b61043484610305565b81016020851015610443578190505b61045761044f85610305565b8301826103f6565b50505b505050565b600082821c905092915050565b600061047d6000198460080261045f565b1980831691505092915050565b6000610496838361046c565b9150826002028217905092915050565b6104af82610256565b67ffffffffffffffff8111156104c8576104c7610261565b5b6104d282546102bf565b6104dd828285610419565b600060209050601f83116001811461051057600084156104fe578287015190505b610508858261048a565b865550610570565b601f19841661051e866102f0565b60005b8281101561054657848901518255600182019150602085019450602081019050610521565b86831015610563578489015161055f601f89168261046c565b8355505b6001600288020188555050505b505050505050565b612ff4806105876000396000f3fe608060405234801561001057600080fd5b50600436106101415760003560e01c80636ffbc6d0116100b85780639bf467fd1161007c5780639bf467fd14610361578063a22cb46514610391578063e190408f146103ad578063e985e9c5146103cb578063f242432a146103fb578063f2fde38b1461041757610141565b80636ffbc6d0146102f7578063715018a61461031357806372930dbf1461031d578063849713b9146103275780638da5cb5b1461034357610141565b8063156e29f61161010a578063156e29f6146102235780632eb2c2d61461023f57806342f9092e1461025b57806345b760d01461028b5780634e1273f4146102a9578063685cba2e146102d957610141565b8062fdd58e1461014657806301ffc9a7146101765780630435dcaf146101a65780630e89341c146101d757806314643bee14610207575b600080fd5b610160600480360381019061015b9190612033565b610433565b60405161016d9190612082565b60405180910390f35b610190600480360381019061018b91906120f5565b61048d565b60405161019d919061213d565b60405180910390f35b6101c060048036038101906101bb9190612158565b61056f565b6040516101ce929190612243565b60405180910390f35b6101f160048036038101906101ec919061227a565b610787565b6040516101fe9190612337565b60405180910390f35b610221600480360381019061021c9190612395565b61081b565b005b61023d600480360381019061023891906123c2565b610847565b005b61025960048036038101906102549190612612565b6108d6565b005b61027560048036038101906102709190612033565b61097e565b6040516102829190612082565b60405180910390f35b6102936109a3565b6040516102a091906126f0565b60405180910390f35b6102c360048036038101906102be91906127ce565b6109b9565b6040516102d09190612846565b60405180910390f35b6102e1610ac2565b6040516102ee9190612885565b60405180910390f35b610311600480360381019061030c91906128cc565b610ad6565b005b61031b610afe565b005b610325610b12565b005b610341600480360381019061033c91906128cc565b610df5565b005b61034b610e1d565b6040516103589190612908565b60405180910390f35b61037b60048036038101906103769190612158565b610e47565b6040516103889190612082565b60405180910390f35b6103ab60048036038101906103a6919061294f565b610e5f565b005b6103b5610e75565b6040516103c29190612885565b60405180910390f35b6103e560048036038101906103e0919061298f565b610e89565b6040516103f2919061213d565b60405180910390f35b610415600480360381019061041091906129cf565b610f1d565b005b610431600480360381019061042c9190612158565b610fc5565b005b600080600083815260200190815260200160002060008473ffffffffffffffffffffffffffffffffffffffff1673ffffffffffffffffffffffffffffffffffffffff16815260200190815260200160002054905092915050565b60007fd9b67a26000000000000000000000000000000000000000000000000000000007bffffffffffffffffffffffffffffffffffffffffffffffffffffffff1916827bffffffffffffffffffffffffffffffffffffffffffffffffffffffff1916148061055857507f0e89341c000000000000000000000000000000000000000000000000000000007bffffffffffffffffffffffffffffffffffffffffffffffffffffffff1916827bffffffffffffffffffffffffffffffffffffffffffffffffffffffff1916145b8061056857506105678261104b565b5b9050919050565b6060806000600360189054906101000a900461ffff1661ffff1667ffffffffffffffff8111156105a2576105a161241a565b5b6040519080825280602002602001820160405280156105d05781602001602082028036833780820191505090505b5090506000600360189054906101000a900461ffff1661ffff1667ffffffffffffffff8111156106035761060261241a565b5b6040519080825280602002602001820160405280156106315781602001602082028036833780820191505090505b509050600080600190505b600360189054906101000a900461ffff1661ffff168161ffff1611610772576000600460008973ffffffffffffffffffffffffffffffffffffffff1673ffffffffffffffffffffffffffffffffffffffff16815260200190815260200160002060008361ffff16815260200190815260200160002054111561075f578061ffff168483815181106106d0576106cf612a66565b5b602002602001018181525050600460008873ffffffffffffffffffffffffffffffffffffffff1673ffffffffffffffffffffffffffffffffffffffff16815260200190815260200160002060008261ffff1681526020019081526020016000205483838151811061074457610743612a66565b5b602002602001018181525050818061075b90612ac4565b9250505b808061076a90612b0c565b91505061063c565b50808352808252828294509450505050915091565b60606002805461079690612b65565b80601f01602080910402602001604051908101604052809291908181526020018280546107c290612b65565b801561080f5780601f106107e45761010080835404028352916020019161080f565b820191906000526020600020905b8154815290600101906020018083116107f257829003601f168201915b50505050509050919050565b6108236110b5565b80600360146101000a81548163ffffffff021916908363ffffffff16021790555050565b61084f6110b5565b61086a8383836040518060200160405280600081525061113c565b80600460008573ffffffffffffffffffffffffffffffffffffffff1673ffffffffffffffffffffffffffffffffffffffff168152602001908152602001600020600084815260200190815260200160002060008282546108ca9190612b96565b92505081905550505050565b60006108e06111d5565b90508073ffffffffffffffffffffffffffffffffffffffff168673ffffffffffffffffffffffffffffffffffffffff161415801561092557506109238682610e89565b155b156109695780866040517fe237d922000000000000000000000000000000000000000000000000000000008152600401610960929190612bca565b60405180910390fd5b61097686868686866111dd565b505050505050565b6004602052816000526040600020602052806000526040600020600091509150505481565b600360149054906101000a900463ffffffff1681565b60608151835114610a0557815183516040517f5b0599910000000000000000000000000000000000000000000000000000000081526004016109fc929190612bf3565b60405180910390fd5b6000835167ffffffffffffffff811115610a2257610a2161241a565b5b604051908082528060200260200182016040528015610a505781602001602082028036833780820191505090505b50905060005b8451811015610ab757610a8d610a7582876112d590919063ffffffff16565b610a8883876112e990919063ffffffff16565b610433565b828281518110610aa057610a9f612a66565b5b602002602001018181525050806001019050610a56565b508091505092915050565b600360189054906101000a900461ffff1681565b610ade6110b5565b806003601a6101000a81548161ffff021916908361ffff16021790555050565b610b066110b5565b610b1060006112fd565b565b600360149054906101000a900463ffffffff1663ffffffff16600560003373ffffffffffffffffffffffffffffffffffffffff1673ffffffffffffffffffffffffffffffffffffffff16815260200190815260200160002054610b759190612b96565b421015610bb7576040517f08c379a0000000000000000000000000000000000000000000000000000000008152600401610bae90612c8e565b60405180910390fd5b60006003601a9054906101000a900461ffff1661ffff1667ffffffffffffffff811115610be757610be661241a565b5b604051908082528060200260200182016040528015610c155781602001602082028036833780820191505090505b50905060006003601a9054906101000a900461ffff1661ffff1667ffffffffffffffff811115610c4857610c4761241a565b5b604051908082528060200260200182016040528015610c765781602001602082028036833780820191505090505b50905060005b6003601a9054906101000a900461ffff1661ffff168160ff161015610d535760006001600360189054906101000a900461ffff1661ffff16423385604051602001610cc993929190612d5a565b6040516020818303038152906040528051906020012060001c610cec9190612dc6565b610cf69190612b96565b905080848360ff1681518110610d0f57610d0e612a66565b5b6020026020010181815250506001838360ff1681518110610d3357610d32612a66565b5b602002602001018181525050508080610d4b90612df7565b915050610c7c565b50610d5f3383836113c3565b42600560003373ffffffffffffffffffffffffffffffffffffffff1673ffffffffffffffffffffffffffffffffffffffff168152602001908152602001600020819055503373ffffffffffffffffffffffffffffffffffffffff167f34ba58ff87abe529e6b6bd6e75acc0d314e41b0aa75a20d8d679a3b78a063d2383604051610de99190612846565b60405180910390a25050565b610dfd6110b5565b80600360186101000a81548161ffff021916908361ffff16021790555050565b6000600360009054906101000a900473ffffffffffffffffffffffffffffffffffffffff16905090565b60056020528060005260406000206000915090505481565b610e71610e6a6111d5565b8383611498565b5050565b6003601a9054906101000a900461ffff1681565b6000600160008473ffffffffffffffffffffffffffffffffffffffff1673ffffffffffffffffffffffffffffffffffffffff16815260200190815260200160002060008373ffffffffffffffffffffffffffffffffffffffff1673ffffffffffffffffffffffffffffffffffffffff16815260200190815260200160002060009054906101000a900460ff16905092915050565b6000610f276111d5565b90508073ffffffffffffffffffffffffffffffffffffffff168673ffffffffffffffffffffffffffffffffffffffff1614158015610f6c5750610f6a8682610e89565b155b15610fb05780866040517fe237d922000000000000000000000000000000000000000000000000000000008152600401610fa7929190612bca565b60405180910390fd5b610fbd8686868686611608565b505050505050565b610fcd6110b5565b600073ffffffffffffffffffffffffffffffffffffffff168173ffffffffffffffffffffffffffffffffffffffff160361103f5760006040517f1e4fbdf70000000000000000000000000000000000000000000000000000000081526004016110369190612908565b60405180910390fd5b611048816112fd565b50565b60007f01ffc9a7000000000000000000000000000000000000000000000000000000007bffffffffffffffffffffffffffffffffffffffffffffffffffffffff1916827bffffffffffffffffffffffffffffffffffffffffffffffffffffffff1916149050919050565b6110bd6111d5565b73ffffffffffffffffffffffffffffffffffffffff166110db610e1d565b73ffffffffffffffffffffffffffffffffffffffff161461113a576110fe6111d5565b6040517f118cdaa70000000000000000000000000000000000000000000000000000000081526004016111319190612908565b60405180910390fd5b565b600073ffffffffffffffffffffffffffffffffffffffff168473ffffffffffffffffffffffffffffffffffffffff16036111ae5760006040517f57f447ce0000000000000000000000000000000000000000000000000000000081526004016111a59190612908565b60405180910390fd5b6000806111bb8585611713565b915091506111cd600087848487611743565b505050505050565b600033905090565b600073ffffffffffffffffffffffffffffffffffffffff168473ffffffffffffffffffffffffffffffffffffffff160361124f5760006040517f57f447ce0000000000000000000000000000000000000000000000000000000081526004016112469190612908565b60405180910390fd5b600073ffffffffffffffffffffffffffffffffffffffff168573ffffffffffffffffffffffffffffffffffffffff16036112c15760006040517f01a835140000000000000000000000000000000000000000000000000000000081526004016112b89190612908565b60405180910390fd5b6112ce8585858585611743565b5050505050565b600060208202602084010151905092915050565b600060208202602084010151905092915050565b6000600360009054906101000a900473ffffffffffffffffffffffffffffffffffffffff16905081600360006101000a81548173ffffffffffffffffffffffffffffffffffffffff021916908373ffffffffffffffffffffffffffffffffffffffff1602179055508173ffffffffffffffffffffffffffffffffffffffff168173ffffffffffffffffffffffffffffffffffffffff167f8be0079c531659141344cd1fd0a4f28419497f9722a3daafe3b4186f6b6457e060405160405180910390a35050565b6113de838383604051806020016040528060008152506117f5565b60005b8251811015611492578181815181106113fd576113fc612a66565b5b6020026020010151600460008673ffffffffffffffffffffffffffffffffffffffff1673ffffffffffffffffffffffffffffffffffffffff168152602001908152602001600020600085848151811061145957611458612a66565b5b60200260200101518152602001908152602001600020600082825461147e9190612b96565b9250508190555080806001019150506113e1565b50505050565b600073ffffffffffffffffffffffffffffffffffffffff168273ffffffffffffffffffffffffffffffffffffffff160361150a5760006040517fced3e1000000000000000000000000000000000000000000000000000000000081526004016115019190612908565b60405180910390fd5b80600160008573ffffffffffffffffffffffffffffffffffffffff1673ffffffffffffffffffffffffffffffffffffffff16815260200190815260200160002060008473ffffffffffffffffffffffffffffffffffffffff1673ffffffffffffffffffffffffffffffffffffffff16815260200190815260200160002060006101000a81548160ff0219169083151502179055508173ffffffffffffffffffffffffffffffffffffffff168373ffffffffffffffffffffffffffffffffffffffff167f17307eab39ab6107e8899845ad3d59bd9653f200f220920489ca2b5937696c31836040516115fb919061213d565b60405180910390a3505050565b600073ffffffffffffffffffffffffffffffffffffffff168473ffffffffffffffffffffffffffffffffffffffff160361167a5760006040517f57f447ce0000000000000000000000000000000000000000000000000000000081526004016116719190612908565b60405180910390fd5b600073ffffffffffffffffffffffffffffffffffffffff168573ffffffffffffffffffffffffffffffffffffffff16036116ec5760006040517f01a835140000000000000000000000000000000000000000000000000000000081526004016116e39190612908565b60405180910390fd5b6000806116f98585611713565b9150915061170a8787848487611743565b50505050505050565b60608060405191506001825283602083015260408201905060018152826020820152604081016040529250929050565b61174f8585858561187b565b600073ffffffffffffffffffffffffffffffffffffffff168473ffffffffffffffffffffffffffffffffffffffff16146117ee57600061178d6111d5565b905060018451036117dd5760006117ae6000866112e990919063ffffffff16565b905060006117c66000866112e990919063ffffffff16565b90506117d6838989858589611c23565b50506117ec565b6117eb818787878787611dd7565b5b505b5050505050565b600073ffffffffffffffffffffffffffffffffffffffff168473ffffffffffffffffffffffffffffffffffffffff16036118675760006040517f57f447ce00000000000000000000000000000000000000000000000000000000815260040161185e9190612908565b60405180910390fd5b611875600085858585611743565b50505050565b80518251146118c557815181516040517f5b0599910000000000000000000000000000000000000000000000000000000081526004016118bc929190612bf3565b60405180910390fd5b60006118cf6111d5565b905060005b8351811015611ade5760006118f282866112e990919063ffffffff16565b9050600061190983866112e990919063ffffffff16565b9050600073ffffffffffffffffffffffffffffffffffffffff168873ffffffffffffffffffffffffffffffffffffffff1614611a3657600080600084815260200190815260200160002060008a73ffffffffffffffffffffffffffffffffffffffff1673ffffffffffffffffffffffffffffffffffffffff168152602001908152602001600020549050818110156119de57888183856040517f03dee4c50000000000000000000000000000000000000000000000000000000081526004016119d59493929190612e20565b60405180910390fd5b81810360008085815260200190815260200160002060008b73ffffffffffffffffffffffffffffffffffffffff1673ffffffffffffffffffffffffffffffffffffffff16815260200190815260200160002081905550505b600073ffffffffffffffffffffffffffffffffffffffff168773ffffffffffffffffffffffffffffffffffffffff1614611ad1578060008084815260200190815260200160002060008973ffffffffffffffffffffffffffffffffffffffff1673ffffffffffffffffffffffffffffffffffffffff1681526020019081526020016000206000828254611ac99190612b96565b925050819055505b50508060010190506118d4565b506001835103611b9d576000611afe6000856112e990919063ffffffff16565b90506000611b166000856112e990919063ffffffff16565b90508573ffffffffffffffffffffffffffffffffffffffff168773ffffffffffffffffffffffffffffffffffffffff168473ffffffffffffffffffffffffffffffffffffffff167fc3d58168c5ae7397731d063d5bbf3d657854427343f4c083240f7aacaa2d0f628585604051611b8e929190612bf3565b60405180910390a45050611c1c565b8373ffffffffffffffffffffffffffffffffffffffff168573ffffffffffffffffffffffffffffffffffffffff168273ffffffffffffffffffffffffffffffffffffffff167f4a39dc06d4c0dbc64b70af90fd698a233a518aa5d07e595d983b8c0526c8f7fb8686604051611c13929190612243565b60405180910390a45b5050505050565b60008473ffffffffffffffffffffffffffffffffffffffff163b1115611dcf578373ffffffffffffffffffffffffffffffffffffffff1663f23a6e6187878686866040518663ffffffff1660e01b8152600401611c84959493929190612eba565b6020604051808303816000875af1925050508015611cc057506040513d601f19601f82011682018060405250810190611cbd9190612f29565b60015b611d44573d8060008114611cf0576040519150601f19603f3d011682016040523d82523d6000602084013e611cf5565b606091505b506000815103611d3c57846040517f57f447ce000000000000000000000000000000000000000000000000000000008152600401611d339190612908565b60405180910390fd5b805160208201fd5b63f23a6e6160e01b7bffffffffffffffffffffffffffffffffffffffffffffffffffffffff1916817bffffffffffffffffffffffffffffffffffffffffffffffffffffffff191614611dcd57846040517f57f447ce000000000000000000000000000000000000000000000000000000008152600401611dc49190612908565b60405180910390fd5b505b505050505050565b60008473ffffffffffffffffffffffffffffffffffffffff163b1115611f83578373ffffffffffffffffffffffffffffffffffffffff1663bc197c8187878686866040518663ffffffff1660e01b8152600401611e38959493929190612f56565b6020604051808303816000875af1925050508015611e7457506040513d601f19601f82011682018060405250810190611e719190612f29565b60015b611ef8573d8060008114611ea4576040519150601f19603f3d011682016040523d82523d6000602084013e611ea9565b606091505b506000815103611ef057846040517f57f447ce000000000000000000000000000000000000000000000000000000008152600401611ee79190612908565b60405180910390fd5b805160208201fd5b63bc197c8160e01b7bffffffffffffffffffffffffffffffffffffffffffffffffffffffff1916817bffffffffffffffffffffffffffffffffffffffffffffffffffffffff191614611f8157846040517f57f447ce000000000000000000000000000000000000000000000000000000008152600401611f789190612908565b60405180910390fd5b505b505050505050565b6000604051905090565b600080fd5b600080fd5b600073ffffffffffffffffffffffffffffffffffffffff82169050919050565b6000611fca82611f9f565b9050919050565b611fda81611fbf565b8114611fe557600080fd5b50565b600081359050611ff781611fd1565b92915050565b6000819050919050565b61201081611ffd565b811461201b57600080fd5b50565b60008135905061202d81612007565b92915050565b6000806040838503121561204a57612049611f95565b5b600061205885828601611fe8565b92505060206120698582860161201e565b9150509250929050565b61207c81611ffd565b82525050565b60006020820190506120976000830184612073565b92915050565b60007fffffffff0000000000000000000000000000000000000000000000000000000082169050919050565b6120d28161209d565b81146120dd57600080fd5b50565b6000813590506120ef816120c9565b92915050565b60006020828403121561210b5761210a611f95565b5b6000612119848285016120e0565b91505092915050565b60008115159050919050565b61213781612122565b82525050565b6000602082019050612152600083018461212e565b92915050565b60006020828403121561216e5761216d611f95565b5b600061217c84828501611fe8565b91505092915050565b600081519050919050565b600082825260208201905092915050565b6000819050602082019050919050565b6121ba81611ffd565b82525050565b60006121cc83836121b1565b60208301905092915050565b6000602082019050919050565b60006121f082612185565b6121fa8185612190565b9350612205836121a1565b8060005b8381101561223657815161221d88826121c0565b9750612228836121d8565b925050600181019050612209565b5085935050505092915050565b6000604082019050818103600083015261225d81856121e5565b9050818103602083015261227181846121e5565b90509392505050565b6000602082840312156122905761228f611f95565b5b600061229e8482850161201e565b91505092915050565b600081519050919050565b600082825260208201905092915050565b60005b838110156122e15780820151818401526020810190506122c6565b60008484015250505050565b6000601f19601f8301169050919050565b6000612309826122a7565b61231381856122b2565b93506123238185602086016122c3565b61232c816122ed565b840191505092915050565b6000602082019050818103600083015261235181846122fe565b905092915050565b600063ffffffff82169050919050565b61237281612359565b811461237d57600080fd5b50565b60008135905061238f81612369565b92915050565b6000602082840312156123ab576123aa611f95565b5b60006123b984828501612380565b91505092915050565b6000806000606084860312156123db576123da611f95565b5b60006123e986828701611fe8565b93505060206123fa8682870161201e565b925050604061240b8682870161201e565b9150509250925092565b600080fd5b7f4e487b7100000000000000000000000000000000000000000000000000000000600052604160045260246000fd5b612452826122ed565b810181811067ffffffffffffffff821117156124715761247061241a565b5b80604052505050565b6000612484611f8b565b90506124908282612449565b919050565b600067ffffffffffffffff8211156124b0576124af61241a565b5b602082029050602081019050919050565b600080fd5b60006124d96124d484612495565b61247a565b905080838252602082019050602084028301858111156124fc576124fb6124c1565b5b835b818110156125255780612511888261201e565b8452602084019350506020810190506124fe565b5050509392505050565b600082601f83011261254457612543612415565b5b81356125548482602086016124c6565b91505092915050565b600080fd5b600067ffffffffffffffff82111561257d5761257c61241a565b5b612586826122ed565b9050602081019050919050565b82818337600083830152505050565b60006125b56125b084612562565b61247a565b9050828152602081018484840111156125d1576125d061255d565b5b6125dc848285612593565b509392505050565b600082601f8301126125f9576125f8612415565b5b81356126098482602086016125a2565b91505092915050565b600080600080600060a0868803121561262e5761262d611f95565b5b600061263c88828901611fe8565b955050602061264d88828901611fe8565b945050604086013567ffffffffffffffff81111561266e5761266d611f9a565b5b61267a8882890161252f565b935050606086013567ffffffffffffffff81111561269b5761269a611f9a565b5b6126a78882890161252f565b925050608086013567ffffffffffffffff8111156126c8576126c7611f9a565b5b6126d4888289016125e4565b9150509295509295909350565b6126ea81612359565b82525050565b600060208201905061270560008301846126e1565b92915050565b600067ffffffffffffffff8211156127265761272561241a565b5b602082029050602081019050919050565b600061274a6127458461270b565b61247a565b9050808382526020820190506020840283018581111561276d5761276c6124c1565b5b835b8181101561279657806127828882611fe8565b84526020840193505060208101905061276f565b5050509392505050565b600082601f8301126127b5576127b4612415565b5b81356127c5848260208601612737565b91505092915050565b600080604083850312156127e5576127e4611f95565b5b600083013567ffffffffffffffff81111561280357612802611f9a565b5b61280f858286016127a0565b925050602083013567ffffffffffffffff8111156128305761282f611f9a565b5b61283c8582860161252f565b9150509250929050565b6000602082019050818103600083015261286081846121e5565b905092915050565b600061ffff82169050919050565b61287f81612868565b82525050565b600060208201905061289a6000830184612876565b92915050565b6128a981612868565b81146128b457600080fd5b50565b6000813590506128c6816128a0565b92915050565b6000602082840312156128e2576128e1611f95565b5b60006128f0848285016128b7565b91505092915050565b61290281611fbf565b82525050565b600060208201905061291d60008301846128f9565b92915050565b61292c81612122565b811461293757600080fd5b50565b60008135905061294981612923565b92915050565b6000806040838503121561296657612965611f95565b5b600061297485828601611fe8565b92505060206129858582860161293a565b9150509250929050565b600080604083850312156129a6576129a5611f95565b5b60006129b485828601611fe8565b92505060206129c585828601611fe8565b9150509250929050565b600080600080600060a086880312156129eb576129ea611f95565b5b60006129f988828901611fe8565b9550506020612a0a88828901611fe8565b9450506040612a1b8882890161201e565b9350506060612a2c8882890161201e565b925050608086013567ffffffffffffffff811115612a4d57612a4c611f9a565b5b612a59888289016125e4565b9150509295509295909350565b7f4e487b7100000000000000000000000000000000000000000000000000000000600052603260045260246000fd5b7f4e487b7100000000000000000000000000000000000000000000000000000000600052601160045260246000fd5b6000612acf82611ffd565b91507fffffffffffffffffffffffffffffffffffffffffffffffffffffffffffffffff8203612b0157612b00612a95565b5b600182019050919050565b6000612b1782612868565b915061ffff8203612b2b57612b2a612a95565b5b600182019050919050565b7f4e487b7100000000000000000000000000000000000000000000000000000000600052602260045260246000fd5b60006002820490506001821680612b7d57607f821691505b602082108103612b9057612b8f612b36565b5b50919050565b6000612ba182611ffd565b9150612bac83611ffd565b9250828201905080821115612bc457612bc3612a95565b5b92915050565b6000604082019050612bdf60008301856128f9565b612bec60208301846128f9565b9392505050565b6000604082019050612c086000830185612073565b612c156020830184612073565b9392505050565b7f57616974206265666f7265206f70656e696e6720616e6f7468657220626f6f7360008201527f7465720000000000000000000000000000000000000000000000000000000000602082015250565b6000612c786023836122b2565b9150612c8382612c1c565b604082019050919050565b60006020820190508181036000830152612ca781612c6b565b9050919050565b6000819050919050565b612cc9612cc482611ffd565b612cae565b82525050565b60008160601b9050919050565b6000612ce782612ccf565b9050919050565b6000612cf982612cdc565b9050919050565b612d11612d0c82611fbf565b612cee565b82525050565b600060ff82169050919050565b60008160f81b9050919050565b6000612d3c82612d24565b9050919050565b612d54612d4f82612d17565b612d31565b82525050565b6000612d668286612cb8565b602082019150612d768285612d00565b601482019150612d868284612d43565b600182019150819050949350505050565b7f4e487b7100000000000000000000000000000000000000000000000000000000600052601260045260246000fd5b6000612dd182611ffd565b9150612ddc83611ffd565b925082612dec57612deb612d97565b5b828206905092915050565b6000612e0282612d17565b915060ff8203612e1557612e14612a95565b5b600182019050919050565b6000608082019050612e3560008301876128f9565b612e426020830186612073565b612e4f6040830185612073565b612e5c6060830184612073565b95945050505050565b600081519050919050565b600082825260208201905092915050565b6000612e8c82612e65565b612e968185612e70565b9350612ea68185602086016122c3565b612eaf816122ed565b840191505092915050565b600060a082019050612ecf60008301886128f9565b612edc60208301876128f9565b612ee96040830186612073565b612ef66060830185612073565b8181036080830152612f088184612e81565b90509695505050505050565b600081519050612f23816120c9565b92915050565b600060208284031215612f3f57612f3e611f95565b5b6000612f4d84828501612f14565b91505092915050565b600060a082019050612f6b60008301886128f9565b612f7860208301876128f9565b8181036040830152612f8a81866121e5565b90508181036060830152612f9e81856121e5565b90508181036080830152612fb28184612e81565b9050969550505050505056fea26469706673582212205dd8a3fb9603a88e3686ea0e2c5cf724444c1d94db2c9f10ba347d20da97527e64736f6c634300081c003368747470733a2f2f676174657761792e70696e6174612e636c6f75642f697066732f62616679626569626e36646f70776d753575737573766f35656472653463377672626d327a35696874746432737776646a36736e6864743474756d2f7b69647d2e6a736f6e",
  "linkReferences": {},
  "deployedLinkReferences": {}
}